:0A0A6A00C0F9A4B0999282F88090C0
:060A74000108000109FF6A
:040A5B007F507EC387
:0B0A5F00EF1FAC0670011E4C70F62269
:100800007580FF7C277D101209B4AE04AF05E508A2
:100810001460181460301460532403706CC290D2BA
:1008200091D292D2937C037DE88034D290C291D24F
:1008300092D2937C037DE81209B47E007F64CFCD11
:10084000CFCECCCE8019D290D291C292D2937C00DE
:100850007D641209B47E007F0ACFCDCFCECCCE12FC
:1008600009B4746A2FF582740A3E8017D290D2912F
:10087000D292C2937C007D0A1209B4746A2DF5826B
:10088000740A3CF583E493F5800508E508D39403E6
:060890004003E4F508221C
:100A0900E4FDE5B054FC64FC6040C2957F0A7E00B9
:100A1900120A5FE5B054FC65096034E5B054FCF591
:100A29000920B7030D802820B6047D02802120B556
:100A3900047D03801A20B4047D04801320B3047D4F
:100A490005800C20B2097D0680057509FCD295AF99
:010A59000597
:010A5A002279
:100896007BD27A04E4FDE5A025E0F5A0120A5B0D03
:1008A600BD08F375A0FFE4F580C293120A5BD293EC
:1008B600C292120A5BD292C291120A5BD291C29084
:1008C600120A5BD290C295120A5BD295C294120AA2
:1008D6005BD294120A09EF24FE601714601B1460A1
:1008E6001C14601D146023240570270BBB00010A2D
:1008F6008020EB1B701C1A8019740A800674F6801F
:100906000B74642BFBE43AFA8008749C2BFB74FF8F
:100916003AFAAF03AE021208007F647E00120A5F45
:0209260080B19E
:03000000020928CA
:0C092800787FE4F6D8FD75810902096FA4
:1009B400BC000BBE0029EF8DF084FFADF022E4CC27
:1009C400F875F008EF2FFFEE33FEEC33FCEE9DECF0
:1009D400984005FCEE9DFE0FD5F0E9E4CEFD22ED36
:1009E400F8F5F0EE8420D21CFEADF075F008EF2F80
:1009F400FFED33FD4007985006D5F0F222C398FD71
:050A04000FD5F0EA220D
:10093400020896E493A3F8E493A34003F68001F23B
:1009440008DFF48029E493A3F85407240CC8C333C4
:10095400C4540F4420C8834004F456800146F6DF93
:10096400E4800B0102040810204080900A74E47EA5
:10097400019360BCA3FF543F30E509541FFEE49388
:10098400A360010ECF54C025E060A840B8E493A34F
:10099400FAE493A3F8E493A3C8C582C8CAC583CA7A
:1009A400F0A3C8C582C8CAC583CADFE9DEE780BE32
:010A7A00007B
:00000001FF
